{
  "contractName": "EtherWallet",
  "abi": [
    {
      "inputs": [],
      "stateMutability": "nonpayable",
      "type": "constructor"
    },
    {
      "anonymous": false,
      "inputs": [
        {
          "indexed": true,
          "internalType": "address",
          "name": "sender",
          "type": "address"
        },
        {
          "indexed": false,
          "internalType": "uint256",
          "name": "amount",
          "type": "uint256"
        }
      ],
      "name": "Deposited",
      "type": "event"
    },
    {
      "anonymous": false,
      "inputs": [
        {
          "indexed": true,
          "internalType": "address",
          "name": "owner",
          "type": "address"
        },
        {
          "indexed": false,
          "internalType": "uint256",
          "name": "amount",
          "type": "uint256"
        }
      ],
      "name": "Withdrawn",
      "type": "event"
    },
    {
      "inputs": [],
      "name": "owner",
      "outputs": [
        {
          "internalType": "address",
          "name": "",
          "type": "address"
        }
      ],
      "stateMutability": "view",
      "type": "function"
    },
    {
      "stateMutability": "payable",
      "type": "receive"
    },
    {
      "inputs": [],
      "name": "withdraw",
      "outputs": [],
      "stateMutability": "nonpayable",
      "type": "function"
    },
    {
      "inputs": [],
      "name": "getBalance",
      "outputs": [
        {
          "internalType": "uint256",
          "name": "",
          "type": "uint256"
        }
      ],
      "stateMutability": "view",
      "type": "function"
    }
  ],
  "bytecode": "0x608060405234801561000f575f80fd5b50335f806101000a81548173ffffffffffffffffffffffffffffffffffffffff021916908373ffffffffffffffffffffffffffffffffffffffff1602179055506104698061005c5f395ff3fe608060405260043610610037575f3560e01c806312065fe0146100905780633ccfd60b146100ba5780638da5cb5b146100d05761008c565b3661008c573373ffffffffffffffffffffffffffffffffffffffff167f2da466a7b24304f47e87fa2e1e5a81b9831ce54fec19055ce277ca2f39ba42c43460405161008291906102e2565b60405180910390a2005b5f80fd5b34801561009b575f80fd5b506100a46100fa565b6040516100b191906102e2565b60405180910390f35b3480156100c5575f80fd5b506100ce610101565b005b3480156100db575f80fd5b506100e46102a7565b6040516100f1919061033a565b60405180910390f35b5f47905090565b5f8054906101000a900473ffffffffffffffffffffffffffffffffffffffff1673ffffffffffffffffffffffffffffffffffffffff163373ffffffffffffffffffffffffffffffffffffffff161461018e576040517f08c379a0000000000000000000000000000000000000000000000000000000008152600401610185906103ad565b60405180910390fd5b5f4790505f81116101d4576040517f08c379a00000000000000000000000000000000000000000000000000000000081526004016101cb90610415565b60405180910390fd5b5f8054906101000a900473ffffffffffffffffffffffffffffffffffffffff1673ffffffffffffffffffffffffffffffffffffffff166108fc8290811502906040515f60405180830381858888f19350505050158015610236573d5f803e3d5ffd5b505f8054906101000a900473ffffffffffffffffffffffffffffffffffffffff1673ffffffffffffffffffffffffffffffffffffffff167f7084f5476618d8e60b11ef0d7d3f06914655adb8793e28ff7f018d4c76d505d58260405161029c91906102e2565b60405180910390a250565b5f8054906101000a900473ffffffffffffffffffffffffffffffffffffffff1681565b5f819050919050565b6102dc816102ca565b82525050565b5f6020820190506102f55f8301846102d3565b92915050565b5f73ffffffffffffffffffffffffffffffffffffffff82169050919050565b5f610324826102fb565b9050919050565b6103348161031a565b82525050565b5f60208201905061034d5f83018461032b565b92915050565b5f82825260208201905092915050565b7f4f6e6c7920746865206f776e65722063616e20776974686472617700000000005f82015250565b5f610397601b83610353565b91506103a282610363565b602082019050919050565b5f6020820190508181035f8301526103c48161038b565b9050919050565b7f4e6f2062616c616e636520746f207769746864726177000000000000000000005f82015250565b5f6103ff601683610353565b915061040a826103cb565b602082019050919050565b5f6020820190508181035f83015261042c816103f3565b905091905056fea26469706673582212209961d07a5b815187af6da8fc5605430c79e87c56c2973c9702e1aa98fa8bf68c64736f6c63430008150033",
  "immutableReferences": {},
  "source": "// SPDX-License-Identifier: MIT\r\npragma solidity ^0.8.0;\r\n\r\ncontract EtherWallet {\r\n    address public owner;\r\n\r\n    // Event to log deposits and withdrawals\r\n    event Deposited(address indexed sender, uint amount);\r\n    event Withdrawn(address indexed owner, uint amount);\r\n\r\n    // Constructor to set the contract owner\r\n    constructor() {\r\n        owner = msg.sender; // Set the contract owner to the account that deploys the contract\r\n    }\r\n\r\n    // Function to receive Ether\r\n    receive() external payable {\r\n        emit Deposited(msg.sender, msg.value); // Emit event on receiving Ether\r\n    }\r\n\r\n    // Function to withdraw all Ether from the contract\r\n    function withdraw() external {\r\n        require(msg.sender == owner, \"Only the owner can withdraw\");\r\n        uint balance = address(this).balance;\r\n        require(balance > 0, \"No balance to withdraw\");\r\n\r\n        payable(owner).transfer(balance);\r\n        emit Withdrawn(owner, balance); // Emit event on withdrawal\r\n    }\r\n\r\n    // Function to check the balance of the contract\r\n    function getBalance() external view returns (uint) {\r\n        return address(this).balance;\r\n    }\r\n}\r\n",
  "sourcePath": "C:\\Users\\User\\Desktop\\ganache1\\contracts\\EtherWallet.sol",
  "compiler": {
    "name": "solc",
    "version": "0.8.21+commit.d9974bed.Emscripten.clang"
  },
  "schemaVersion": "3.4.16",
  "updatedAt": "2024-12-29T13:12:37.112Z",
  "devdoc": {
    "kind": "dev",
    "methods": {},
    "version": 1
  },
  "userdoc": {
    "kind": "user",
    "methods": {},
    "version": 1
  }
}